:060000000A128A110C280F
:10000800FE00030EF0000A08F1000A128A1168299E
:100018000A128A110F2883010A128A119C28273094
:10002800F700F530F600F60B1728F70B17283030D5
:100038000A128A116F210A128A110D30F700FB305B
:10004800F600F60B2528F70B25282A2830300A1247
:100058008A112B210A128A116A30F600F60B32280F
:10006800000030300A128A112B210A128A116A30D4
:10007800F600F60B3D28000038300A128A112B21B1
:100088000A128A1110300A128A112B210A128A11B7
:1000980001300A128A112B210A128A1106300A121B
:1000A8008A112B210A128A110C300A128A112B216B
:1000B8000A128A1180300A128A112B210A128A1117
:1000C8000800F4008528831603130F088F39403879
:1000D8008F000F149B28831603130F088F3950388D
:1000E8008F000F149B28831603130F088F3960386D
:1000F8008F000F149B287030831603138F040F147E
:100108009B287408F200F3017308003A03198D283C
:100118009B287208013A03196728033A03196F28C4
:10012800063A031977280C3A03197F289B280800F8
:100138000A128A1159210A128A110A128A111320E5
:100148000A128A11F601F60A01300A128A11EB2006
:100158000A128A1101300A128A11C6200A128A115B
:10016800F601F60A02300A128A11EB200A128A11E5
:100178000E300A128A11C6200A128A11A6280A12FB
:100188008A110C28F700F501F601DD2875087707B4
:1001980084000A128A110F210A128A110A128A117E
:1001A80044210A128A110130F5070318F60A0030B3
:1001B800F6077508770784000A128A110F210A12B8
:1001C8008A11003A031DE928EA28CA280800F8001D
:1001D8007803031DF028F128FD2876087F3EF700F4
:1001E8007708F90079080A128A112B210A128A1154
:1001F8000E2902307806031D022903290E297608E4
:10020800BF3EF7007708F90079080A128A112B21F6
:100218000A128A11080001308A000408840A820739
:1002280000346534733474346F3420346534733473
:10023800203475346E3461342034003470347234B0
:100248007534653462346134203432340034F50056
:1002580075080A128A116F210A128A118312031370
:100268008910091109140D30F400FB30F300F30B69
:100278003B29F40B3B29402983120313091008007A
:10028800F40074080A128A116F210A128A11831263
:1002980003138914091109141A30F300F30B5229B6
:1002A800000083120313091008008316031788013E
:1002B8008901831603138601890108300A128A11FD
:1002C80065200A128A11080071088A00700E8300DE
:1002D800FE0E7E0E0900F2007208831203138600D8
:0202E80008000C
:04400E00D420FF3F7C
:00000001FF
