:100000000A128A11FA2F00308A000408840A820733
:1000100000346534733474346F342034653473348D
:10002000203475346E3461342034003470347234CA
:0A0030007534653462346134003425
:100C600000300A128A114B260A128A1101300A1228
:100C70008A114B260A128A1108008316031788016D
:100C8000890183160313880108300A128A11DB26B2
:100C90000A128A110800F300831203130811730863
:100CA0000A128A1165260A128A1183120313881503
:100CB0000B30F2006230F100F10B5C2EF20B5C2E77
:100CC00000008312031388110800F000701C692EC5
:100CD0006A2E6E2E831203130816712E83120313CD
:100CE0000812F01C742E752E772E8816782E881216
:100CF000701D7B2E7C2E7E2E08177F2E0813F01D74
:100D0000822E832E852E8817862E88130800F700E2
:100D1000F501F6019E2E7508770784000A128A11E4
:100D200003200A128A110A128A1112270A128A1142
:100D30000130F5070318F60A0030F6077508770743
:100D400084000A128A1103200A128A11003A031D34
:100D5000AA2EAB2E8B2E08000A128A113D260A12EB
:100D60008A110A128A119D270A128A110A128A11FF
:100D700030260A128A11F401F40A01300A128A118B
:100D80004B270A128A1101300A128A1187260A1289
:100D90008A11F401F40A02300A128A114B270A124E
:100DA0008A110E300A128A1187260A128A11BB2E66
:100DB0000A128A110028F200FB2E831603130F0873
:100DC0008F3940388F000F14112F831603130F082B
:100DD0008F3950388F000F14112F831603130F080B
:100DE0008F3960388F000F14112F70308316031362
:100DF0008F040F14112F7208F000F1017108003AEE
:100E00000319032F112F7008013A0319DD2E033A3D
:100E10000319E52E063A0319ED2E0C3A0319F52EA7
:100E2000112F0800F40074080F39F1007108F20066
:100E30007408F039F1007108F300831203130815E8
:100E40007308F10004300310F10CFF3E031D232F43
:100E500071080A128A1165260A128A118312031375
:100E600088151A30F100F10B332F000083120313A1
:100E7000881172080A128A1165260A128A118312D1
:100E8000031388151A30F100F10B442F0000831270
:100E9000031388110800F7007703031D502F512F0B
:100EA000742F74087F3EF5007508FA007A08F50083
:100EB00004300310F50CFF3E031D592F7508F60092
:100EC0007608F8007A080F39F5007508F9007808F7
:100ED0000A128A114B260A128A1179080A128A11FB
:100EE0004B260A128A119C2F02307706031D792F98
:100EF0007A2F9C2F7408BF3EF5007508FA007A0817
:100F0000F50004300310F50CFF3E031D822F750819
:100F1000F6007608F8007A080F39F5007508F90030
:100F200078080A128A114B260A128A1179080A12C5
:100F30008A114B260A128A11080000300A128A11FF
:100F400065260A128A113430F500F130F400F40BF2
:100F5000A72FF50BA72FAC2F03300A128A114B26AF
:100F60000A128A110D30F500FB30F400F40BB62F95
:100F7000F50BB62FBB2F03300A128A114B260A122B
:100F80008A111D30F5009130F400F40BC52FF50BDC
:100F9000C52F03300A128A114B260A128A11023019
:100FA0000A128A114B260A128A1102300A128A1179
:100FB0004B260A128A1108300A128A114B260A128D
:100FC0008A1100300A128A114B260A128A110C303B
:100FD0000A128A114B260A128A1100300A128A114B
:100FE0004B260A128A1106300A128A114B260A125F
:100FF0008A110800FB01FC0183010A128A11AC2E40
:04400E00D420FF3F7C
:00000001FF
