:060000000A128A110E280D
:10000800FE00030EF2000408F3000A08F4000A12C6
:100018008A1119280A128A111128F901FA01FB011B
:10002800FC0183010A128A11CF280B1D1C281D28E8
:100038004B287903031D212822283428831203130F
:1000480009140330F1009730F000F00B2928F10B68
:1000580029282E28831203130910463081000B111A
:1000680002307906031D39283A284A2883120313D7
:100078000914D630F00040284128F00B3F28000032
:10008800831203130910483081000B110B110B1C4C
:100098004E284F2865285528FA016428FA01FA0ADB
:1000A8006428831203130608F000F1017108003A6E
:1000B80003195F2850287008FD3A03195228502860
:1000C8000B1074088A0073088400720E8300FE0EF9
:1000D8007E0E0900F7008E28831603130F088F3948
:1000E80040388F000F14A428831603130F088F3984
:1000F80050388F000F14A428831603130F088F3964
:1001080060388F000F14A4287030831603138F04EF
:100118000F14A4287708F500F6017608003A0319A9
:100128009628A4287508013A03197028033A031978
:100138007828063A031980280C3A03198828A42835
:100148000800831603178801890183160313861490
:10015800880109108312031386018801890104307C
:100168000A128A116E200A128A1183160313811249
:100178008111073081044E308312031381008316E6
:100188000313811395148B170B178B160B118B15F3
:100198000B10961408000A128A11A5200A128A1157
:1001A8007A03031DD828D928EB288312031386184D
:1001B800DE28DF28EB280130F8007808F907FA0173
:1001C80003307902031CE928EA28EB28F9017908A9
:0E01D800831203138800D4280A128A110E28FD
:04400E00D420FF3F7C
:00000001FF
